:020000040800F2
:10000000B01A0020D9000008798700089D6A00080E
:1000100000000000000000000000000000000000E0
:10002000000000000000000000000000EFB4000825
:1000300000000000000000002994000829D70008F3
:10004000EB000008EB000008179C0008EB0000081C
:10005000EB0000088528000895280008A52800085E
:10006000EB000008EB000008EB000008D5220008B8
:10007000EB000008EB000008EB000008EB000008B4
:10008000EB000008EB000008EB0000080000000097
:1000900011D80008EB000008EB000008EB00000896
:1000A000EB000008EB000008EB00000831E300085B
:1000B000EB000008B19B000800000000EB00000806
:1000C0000448854600F0E4FE00480047110A010894
:1000D000C046C046B01A0020044880470448004784
:1000E000FEE7FEE7FEE7FEE7FEE7FEE7BDD7000816
:1000F000C100000830B50B46014600202022012433
:1001000009E00D46D5409D4205D31D469540491B4B
:100110002546954040191546521E002DF1DC30BD94
:1001200070B500242546002801DA01244042002948
:1001300001DA01254942FFF7DDFFAC4200D0404221
:10014000002C00D0494270BDF0B51FB40646002017
:1001500082B005464024019100901BE0019922469F
:100160000F46304600F0DEFC049A059B801A994148
:1001700010D310461946224600F0C4FC361A8F41AF
:100180000197224601200021009F00F0BBFC381897
:100190004D4100902046641E0028DFDC019B009842
:1001A0002946324607B0F0BDF0B51FB486B0002036
:1001B0000090019002900698069980B204900798EA
:1001C000090C02040014114307900027089D0998A8
:1001D00006913E463C4603900398A9B20204000CE7
:1001E000039004982D0C154348430021224600F04B
:1001F00089FCC719714110340E46402CECDB38469F
:10020000029A00F07FFC009A019B801800905941EF
:1002100002980191103002904028CCDB00980BB07E
:10022000F0BD03460B439B0703D009E008C9121F2A
:1002300008C0042AFAD203E00B780370401C491C62
:10024000521EF9D27047D2B201E00270401C491E22
:10025000FBD270470022F6E710B513460A46044663
:100260001946FFF7F0FF204610BD421C0178401CE4
:100270000029FBD1801A704730B50546002003469F
:1002800000E05B1C934205D2EC5CC85C201A01D1F3
:10029000002CF6D130BD00000FB400B58DB0099030
:1002A0000B9010A900200091C0430A9000200C90F0
:1002B00006480690064807906A4609A80F9900F07C
:1002C0006BFC0DB008BC04B018470000B90B000867
:1002D000D90B0008FFB50027FF4383B000205C68FE
:1002E00001909E681D46A9697F1C0498884700906C
:1002F000296A88470028F6D10098401C0CD00320BA
:1003000040028443002E19DD600614D500982B2886
:1003100009D02D280FD103E00020C04307B0F0BD65
:10032000012080020443A9697F1C04988847761E37
:100330000090002E02DD0098302803D00598002898
:1003400025D035E0012040020443A969761E7F1CB8
:10035000049888470090002E03DD782805D058289F
:1003600003D00598002810D022E00598002801D07D
:1003700010281DD1012040028443A969761E7F1CEC
:10038000049888470090102002E0082000E00A202E
:1003900005900DE0012149020C43059A0199761E52
:1003A000514308180190A9697F1C04988847009060
:1003B000002E05DD0599009800F0D8FB0028E9DA49
:1003C000E96904988847A00502D40120C043A5E745
:1003D000E00722D1600611D56005019800D54042A2
:1003E00029680A1D2A600968220501D5087014E0F1
:1003F000220701D5088010E008600EE02868011D82
:1004000029600068210502D50199017005E02107E6
:10041000019901D5018000E0016038467EE770B5A2
:1004200006460EF0B7F8046805460A220021304659
:1004300000F0E4FB2C6070BDF8B502464A40D40FD2
:1004400042004B0052085B089A4202D2024608461C
:1004500011464A0023D0C30D4A00DDB2120EAD1A78
:10046000202D35DA49020126490AF6058A19002CA1
:1004700000D0524220214F1B1146B9402A4110188A
:10048000C20D9A4221D0002C17D0012D08DCDA05CC
:10049000801AD20F8019D207DBB200F0EFFBF8BD53
:1004A000DA05801A012340001B06C01880185A4242
:1004B0008018CA0F1043490007E04908C2071143DA
:1004C000DA05801A80194008801800F0CFFBF8BDCB
:1004D00061000122511A001BF7E70122D2075140A7
:1004E000AAE70122D2075040A6E7024670B54A406B
:1004F000D30FDB0740002DD04A002AD0010E140E86
:10050000000212020919400A520A8418E501044641
:100510005443000A120A2E045043A4194219200C15
:10052000C543AA18120C0125AD03521C521912041E
:100530007F39240400D0521C104301D44000491ECE
:10054000C2B20C06C0092018401C4008802A02D004
:1005500003E0002070BD40084000002900DA0020C0
:10056000184370BD70B502464A40D50F40004A009E
:10057000ED0740085208002814D0002A12D0C40DFC
:10058000D30D41020120C0055202490A520AE41A61
:10059000091812187D34914201D3641C00E049000F
:1005A000002C01DA002070BD0023914201D3891A8A
:1005B0000343400849000028F7D100290AD091429E
:1005C00002D10121C90705E0914201D2012101E0D8
:1005D0000121C943E005C018401900F047FB70BD78
:1005E000F0B507460846584087B0C00F0490480051
:1005F0000E46590040084908BC1A884105D23846C1
:1006000031461E4617460B46024658004008104326
:100610004DD0300D039040055900400D490D059017
:10062000401A0290402873DA18030121000B0905D3
:100630000843019004980092002806D01146019AC0
:1006400049420020904100910190029840210A1AED
:100650000199009800F056FA05460C466B4607CB08
:1006600000F071FAC0197141039A0E0D0023D717DB
:1006700056401A467A40164344D0049A002A2DD098
:10068000029A012A039A15DC1205C01A914101262B
:100690003605001C7141D20F059ED20700930192CE
:1006A00002962A46234600F02FFB07B0F0BD3846DD
:1006B0003146FAE71605234A0F46B218C01AB74169
:1006C00001210905001C4F4100187F4111461818EF
:1006D0007941E20F10436D19644113E0E2076D08A0
:1006E00015436408C2071443039A01261205C01A71
:1006F00091413605001C7141CE074008304349083E
:10070000C01851412A46234600F0F1FACDE7FFE731
:10071000049801224000C117121A00238B4104984B
:100720003146C417381AA141EEE730B40124E4077A
:10073000634030BC54E730B40124E407614030BC6E
:100740004EE700000000E0FFF0B51FB488B00B9941
:100750000998002448400999C00F490049080991A7
:10076000C0070B990090490049080B910999089816
:10077000A64608431CD00B990A98084318D009983C
:1007800001244000420D4800410D09982405000352
:10079000000B204309900B980003000B20430B90A3
:1007A00050181C494018002201901446104605E0DC
:1007B000002001460DB0F0BD032801DA034600E039
:1007C00003239C46C11A0AAE0AE05F0008ADED5B48
:1007D0004F00F75B7D430027AA187C41491C5B1E34
:1007E0006145F2DD410004AB5A522104120C0A4368
:1007F000240C401C0828DFDB019802900099704609
:1008000001910090059B049A0799069800F07CFAE4
:10081000D0E700000DFCFFFFF0B50C465C4085B052
:10082000E40FE40703944C00002664085900944642
:10083000490802460296224321D062460A431ED04E
:100840006200570D4A000E032303550D0124024692
:100850002C492405781B1B0B360B401823432643D9
:10086000614600901C46501AB44103D30098401CC6
:10087000009002E0921800985B41002803DA002003
:10088000014605B0F0BD0020012109050746864656
:1008900011E064461D46141BB54106D36546521B44
:1008A000B341744607430C43A646CD0740084908A8
:1008B000284392185B4105460D43EAD11046184380
:1008C00013D06046194650407140084306D0604638
:1008D000101AB34106D20122002306E000220123B0
:1008E000DB0702E00122D243531000987446010551
:1008F000381C6141029C039D0019694100F0F7F921
:10090000BFE70000FD03000070B54B005B08034328
:100910000BD04B005C0D002633466542B341D41723
:10092000AD1AA34102DB0020014670BD120530184C
:10093000514170BDC217C10F504010B54018CA07D1
:100940009623002100F09AF910BD10B500229623DD
:10095000114600F093F910BD0EB5C217C10F5040FB
:10096000CA0740180021054B0293019200910A46E4
:100970000B4600F0C9F903B000BD000033040000CD
:100980000EB505490291002100910A460B460191DE
:1009900000F0BAF903B000BD33040000C20F4100FB
:1009A00040020123400ADB05D207090EC0187F2947
:1009B00001DA00207047962903DC9623591AC840B3
:1009C00001E096398840002AF4D040427047410047
:1009D00040020122400AD205090E80187F2901DA5F
:1009E00000207047962903DC9622511AC8407047B0
:1009F000963988407047000070B5CD0F4A00090352
:100A00000123090B1B0519430B4BED070024520D65
:100A10009A4201DA002070BD074B34339A4203DC5E
:100A20009A1A00F07FF802E00449511888402C43DC
:100A3000F1D0404270BD0000FF030000CDFBFFFF7E
:100A40004A0009030123090B1B051943094B10B583
:100A5000520D9A4201DA002010BD064B34339A42FF
:100A600003DC9A1A00F05EF810BD03495118884063
:100A700010BD0000FF030000CDFBFFFFC20FD20737
:100A8000400040080BD0C10D0723DB01C91840020C
:100A90000905400A1143C20840071143704700206E
:100AA0000146704710B5002904DB0124E4074042E9
:100AB0008C412146002B04DB1C460123DB075242FC
:100AC000A341994200D1904210BD0000CB0FDB073B
:100AD000490010B5490802460A4307D00A0D072409
:100AE0000903E401090B121B002A01DC002010BDE0
:100AF000C900440F0C43C100E018D205801800F073
:100B0000B5F810BD10B5202A04DB0146203A91400B
:100B1000002010BD914020239C1A0346E340194356
:100B2000904010BD10B5202A04DB0846203AD04082
:100B3000002110BD0B46D340D0402024A21A914082
:100B40000843194610BD10B5202A06DBCB1708460E
:100B5000203A1041C1170B4306E00B461341D04029
:100B60002024A21A91400843194610BD3A2800D209
:100B70003038202302469A43412A01D310463738A1
:100B8000884201D30020C0437047000002681378F8
:100B9000511801601846704710B5D1600449516181
:100BA0000449116200211161114600F091F910BD54
:100BB0008D0B0008BD0E00084268002A08D00168AD
:100BC0000B78491C002B03D0521E06C018467047F4
:100BD0000121C160881E70474268002A0BD0C3689B
:100BE0000168002B07D183688B4204D0491E521C38
:100BF00006C0002070470020C0437047F7B5009C36
:100C00000F4600262578641C002D05D000F052F90F
:100C10000068405DC007F5D12B2D02D02D2D18D0D6
:100C2000641E39462046029A00F0F0FA002F04D0E4
:100C30003968A14201D10099396071050224002967
:100C40000BDA4042002803DD0DF0A4FC0460A0078D
:100C5000FEBD012080020643E3E70028F8DA0DF02C
:100C600099FC04600048FEBDFFFFFF7F002904DA05
:100C7000401C490001D140084000704770B4002476
:100C8000050C05D11024000402D1002921D0112423
:100C9000050E01D100020834050F01D10001241D09
:100CA000850F01D18000A41C002801DB4000641CDA
:100CB000002908D020252E1B0D46F540A14000D06C
:100CC00001212943084301061B1B000ADB1D02D535
:100CD000002070BC7047DB05181880180029F8DA6E
:100CE000401C4900F5D170BC40084000704710B569
:100CF000002B08DA0024401C614192185B411A4322
:100D000001D14008400010BDF0B51FB482B00546C7
:100D10000C0003D008460DF001FC02E00DF0FEFBD4
:100D200020300246009021462846FFF7EBFE049B48
:100D3000059A04460F4618431143084314D0184639
:100D400010431BD0009840210A1A18460599FFF756
:100D5000E9FE05460E46009A05990498FFF7D2FE73
:100D6000084305D0012004E02046394607B0F0BD15
:100D70000020C11705430E432C43374300990E98BA
:100D80006305401A7905E40A00220C43FD0A0A3083
:100D900002D500200146E9E70105101969410C9CC4
:100DA0000D9D00196941FFF7A2FFDFE7F8B5054681
:100DB000480040080C46284304D06000184A400D03
:100DC000904201DD2846F8BD15493539884210DCCE
:100DD00088420BDB290D200308432903014305D07A
:100DE000E00F1049C00741180020F8BD002001465F
:100DF000F8BD161A4020821B28462146FFF782FEC6
:100E000007460091284621463246FFF78BFE3A46B8
:100E1000009BFFF76CFF3246FFF774FEF8BD000041
:100E2000330400000000F03F4A0009030123090BCE
:100E30001B0519430A4B10B5520D9A4202DA0020E5
:100E4000014610BD064B34339A4203DC9A1AFFF771
:100E500069FE10BD034BD218FFF754FE10BD000011
:100E6000FF030000CDFBFFFF10B5002904DB0124C8
:100E7000E40740428C412146002B04DB1C46012341
:100E8000DB075242A3418B4200D1824210BD0000D9
:100E9000064C0125064E05E0E36807CC2B430C3CCD
:100EA00098471034B442F7D3FFF70EF9F83701082A
:100EB0001838010800487047D428010810B50446C6
:100EC000FFF7F8FF0068005DC007C00F10BD00000D
:100ED000F3B58DB000200A9001200B900026084643
:100EE0000C300C4609906269012109989047051E53
:100EF0002ED0252D2DD0216A8847002818D0626970
:100F0000012109989047216A88470028F7D1411E9E
:100F100062690998904700E0761CA1690D9888479E
:100F2000216A88470028F7D1E1690D988847DAE7F8
:100F3000A1690D9888470746A84201D1761CD2E7DF
:100F4000E1690D9888477F1C02D10A98002877D064
:100F50004AE1002762693D463946099890472A28A8
:100F60000CD16269012109989047012506E00A2108
:100F70004F433F18303FEBD41020054362690121F5
:100F800009989047014630390A2903D29C498F427B
:100F9000DEDCECE7E90600D49A4F6C280AD04C2836
:100FA00010D0682824D06A282ED074280CD07A2833
:100FB0000AD00DE062690121099890476C2823D07E
:100FC00004211CE020200543626901210998904713
:100FD000A760656065284FD026DC582839D01ADC18
:100FE000452849D012DC252834D04128B0D143E02F
:100FF0006269012109989047682802D008210D43B1
:10100000E6E70120C002DEE70220DCE7462833D015
:1010100047282CD130E05B2870D061282CD0632881
:101020006CD0642823D161E06F284FD009DC66289A
:1010300022D0672820D0692826D06E2817D12EE02C
:10104000CEE070284DD073286FD075284ED0782808
:101050000DD154E0A1690D9888470546252800D197
:101060006CE7E1690D9888476D1C00D16DE7BBE026
:101070000A224CE00A2252E0012023466A46C0437D
:101080000D99C046C046A4E0284640210843606050
:10109000A807234601D5002239E000223FE0E807F7
:1010A00000D020E72068011D21600068290501D5D6
:1010B000067018E7290701D5068014E7A90703D5AC
:1010C000F117066041600EE706600CE728464021F4
:1010D00008436060A807234601D5082217E00822CC
:1010E0001DE0494928460840606016E02846402136
:1010F00008436060A8072346BCD5B9E715E0284639
:10110000402108436060A80707D52346102201202C
:10111000C0430D99C046C0465BE023461022012023
:10112000C0430D99FFF7D6F853E000210C910B4610
:101130000091632802D05B2808D044E02079C006E3
:1011400001D40120A060012000903CE062690121EF
:10115000099890475E2805D101200C9001466269EC
:10116000099890472169002906D10B4601AA8F00F2
:10117000491CD3510829FADB002835D02169002900
:101180000ED1C117C90E09184A11930001AA9A1865
:1011900049094901411A012013688840034313603B
:1011A00062690121099890475D28E5D10C980028D3
:1011B00008D0002001AB81005A58401CD2435A503D
:1011C0000828F8DB01AB01202246C0430D99C04638
:1011D000C04600280ADA401C06D10B98002803D02C
:1011E0000020C0430FB0F0BD0A98FBE7E90702D129
:1011F0000A99491C0A91361800200B9073E60000EA
:10120000CCCCCC0CFFFFFF7FF1F7FFFFF7B582B02E
:10121000029C00272078641C15460197302802D0D4
:10122000002D15D015E020780127641C782804D003
:10123000582802D0002D09D00BE0002D01D0102D30
:1012400007D1002710252078641C02E0082500E063
:101250000A250026009610E0009901276943081826
:10126000020C294680B2714300908E1838048642E1
:1012700001D3012001902078641C2946FFF776FCF9
:101280000028E9DA0398002805D0002F01D0641E59
:1012900000E0029C04600198002806D00DF07AF965
:1012A00002210160C81E05B0F0BD0099300408435A
:1012B000F9E770B58C180578401C6B075B0F01D1FE
:1012C0000378401C2A1106D10278401C03E00678FE
:1012D0000E70401C491C5B1EF9D12B0705D400235E
:1012E000521E0DD40B70491CFAE70378401CCB1A30
:1012F000921C03E01D780D70491C5B1C521EF9D531
:10130000A142D8D3002070BD38B50446064805492F
:101310000068FEF7EFFE604300E0401E00900028EA
:10132000FBD138BD40420F0084000020F8B50446D0
:10133000006881688907890F012902D10168C907FE
:1013400022D18168114A10261140012500290ED1B1
:101350008168294381600120FFF7D6FF02F07EFCFF
:1013600007460CE002F07AFCC01B0A2807D9A06DE2
:101370003043A065E06D2843E0650120F8BD20689A
:101380000068C043C007EDD10020F8BD1700008001
:10139000F0B589B00C4607461022002168460FF0D0
:1013A0003DFC6946224608460DF06BFD6846007814
:1013B00087260106684600290FDA00214318425C9F
:1013C0005B785200DB091A434254491C0F29F5DBB4
:1013D000C17B0246490071400DE000214318425C88
:1013E0005B785200DB091A434254491C0F29F5DB94
:1013F000C17B02464900D173E21DF93251691029BF
:1014000012D0017809061BD500214518435C6D7880
:101410005B00ED092B434354491C0F29F5DBC17BCD
:1014200003464900714019E000216218FF32013281
:101430005378455C491C6B4053701029F5DB26E05E
:1014400000214518435C6D785B00ED092B43435444
:10145000491C0F29F5DBC17B03464900D973E11D07
:1014600055698023FA316B54002500E05D545369BF
:101470005B1C5361102BF9D300216218FF3201323B
:101480005378455C491C6B4053701029F5DB0021F3
:1014900062181046FF32E0300132437C5278491C1A
:1014A000534043741029F3DB21461022F13104A884
:1014B0000FF09CFB2246394604A80DF0E2FC1022F6
:1014C000002168460FF0AAFB09B0F0BD10B5044634
:1014D00010220021F1300FF0A1FBFF200021153078
:1014E0000151F02220460FF099FB10BD0B4610B5BC
:1014F0000246102118460DF0EFFC10BDF0B5044671
:10150000FF308BB00F4601300890E11D4069FA3181
:101510000091103915460791002843D010210E1A6A
:10152000AE4200D316460099B2B2401839460FF0C9
:101530005DFB0898089940698019486110283AD3E2
:10154000B54238D0002162181046FF32E030013237
:10155000437C5278491C534043741029F3DB0799AC
:10156000224608460DF08DFCBF19AD1B1AE0002085
:101570002118E0314A7C3B5C401C5A404A741028D8
:10158000F6DB102202A807990FF030FB02A92246D1
:1015900008460DF076FC102202A907980FF026FBF2
:1015A000103D1037102DE2D8AAB2394600980FF03E
:1015B0001DFB089845610BB0F0BD0000F7B523494D
:1015C0008022897B214B511ACDB2597B9B7B80268F
:1015D000F31A0A46DEB2871E491C0124C9B2761EE0
:1015E0003B000CF0CAFF09060C060C120C06062B79
:1015F0003000164BAA4224D2154CA05403E0134BE2
:10160000B24215DB1DE059730DE0104EAD1EAA422B
:1016100017DA0F4B985401985854491CC8B20299D4
:101620001954401C7073002408480121017308E01C
:10163000074CA05401986054491CE4E7034BAA42AC
:10164000F6D32046FEBD0220FEBD0000FC010020B6
:101650000210002010B50E480C4901600D49416090
:101660000121C160002101618161C1610162F0213C
:101670008160FE21416102F01FFB002801D001F0D2
:101680007BF90021024802F0EFFA10BD005400403F
:1016900090050020563EA11010B586B01421684672
:1016A000FEF7D8FD0D48C26A02210A43C262C06A31
:1016B0000B4C084005901020009001200190002064
:1016C0000290032003906946204602F0F9F90122B6
:1016D0001021204602F0BBFA06B010BD00100240F7
:1016E00000040050F0B585B00FF048FD8148FF269A
:1016F0000078F536002775007F4C012806D00328B6
:1017000004D0022872D005286FD0D7E07BA00068F3
:1017100001907BA00068029000F0A4FA0CF02EF972
:10172000039006E003980CF02FF9B04201D3A770A4
:1017300008E0012301AA80217248009502F0A2FB73
:101740000028EFD1012301AA80216E48009502F004
:1017500099FB002804D10120A0706BA00CF014FAB2
:10176000A0780028D1D1674802F06EFD00F09CFA05
:101770000CF004F9039006E003980CF005F9B04270
:1017800001D3A77008E0022302AA882164480095CB
:1017900002F078FB0028EFD1022302AA88216048DA
:1017A000009502F06FFB002804D10220A0705DA01C
:1017B0000CF0EAF9A0780028A7D1594802F044FDBE
:1017C00005F090F90EF03CFC054605F069F95B4820
:1017D000854204D00320A07059A00CF0D5F9A07860
:1017E00000286BD15DA023E000E057E00397624F33
:1017F00000222021384602F02AFAFFF72BFF10F0D2
:10180000A1FA012603A8009033460022C4210196C4
:1018100002955A4802F06EFC10F094FA584988423A
:1018200009D2667001222021384602F010FA55A034
:101830000CF0AAF942E0514802F006FD0BF0ECFF73
:1018400001F074FA01F0B2FA01210520C902000783
:1018500002F0F8F9002804D10220607052A00CF0C8
:1018600093F901F045FA01F081FA6078002825D15A
:101870005A48816B4908490081630EF055FE0128E2
:1018800008D057A00CF080F901222021384602F040
:10189000DEF913E0032060705CA0F3E70CF000FEBB
:1018A0000CF0D0FD01F01CFB304600F0B4FF01F05D
:1018B00017FB5FA00CF068F90028FAD162480078A5
:1018C000002806D0012807D0022808D003280BD111
:1018D00008E001F08DF907E001F0C2F904E001F041
:1018E0005FF901E001F094F901F0E2F9FFF7D4FEAD
:1018F00005B0F0BD240100208C000020E7000000AE
:10190000F32D0000A8040020205573652053656E58
:10191000736F722069732053544832780A0D0000A7
:10192000F404002020205573652053656E736F7298
:101930002069732053544833780A0D0000FF7F4715
:1019400020205573652053656E736F722069732074
:101950004248313735300A0D0000000020204E6F1C
:101960002049324320646576696365206465746547
:10197000637465640A0D00000004005090050020A7
:101980000F27000020205573652053656E736F721A
:10199000206973204C494441525F4C6974655F76FD
:1019A0003348500A0D000000202055736520536510
:1019B0006E736F7220697320756C747261736F6ED1
:1019C00069632064697374616E6365206D6561731A
:1019D0007572656D656E740A0D000000001002409E
:1019E00020204E6F2064697374616E6365206D659D
:1019F00061737572656D656E742064657669636583
:101A00002064657465637465640A0D002020557355
:101A1000652053656E736F722069732054462D7371
:101A200065726965732073656E736F720A0D0000CD
:101A300020205573652053656E736F722069732083
:101A400048583731310A0D0025010020F8B5044609
:101A500000222021734802F0FAF805F02FFBFF2046
:101A6000F53000F0D8FE704E3088002815D00025E3
:101A70000DE0642000F0CFFE63212846FEF750FB06
:101A8000002903D1002D01D005F018FB6D1C642145
:101A90003088FEF72FFBA842EBDA624E00221021BD
:101AA000304602F0D4F804F09DFC012004F0DAFB8B
:101AB0005E4DA88001221021304602F0C8F8A888A7
:101AC0005B4E318848435B49FEF72AFBFEF732FF45
:101AD0002061012105200903000702F0B3F820600E
:101AE000012000F00BFC544F60603878012808D0CA
:101AF000032806D0022834D004285BD0052862D001
:101B000089E0A878002806D0012807D0022812D042
:101B100003281CD061E04948E06116E0484802F023
:101B2000ABFB09F0A1FB009009F014FB0146009803
:101B30002162E06151E0434802F09EFB0FF072FF2A
:101B400041480068E06141480068206245E00120AA
:101B5000287004F0C7FF0EF073FA606204F0A0FF73
:101B60003BE06878012807D002280ED0032818D05F
:101B70003748A062E0624EE0364802F07DFB05F097
:101B800067FF05F0CDFEA06227E001F0CFF801F07D
:101B90000DF90CF017FBA06201F0AAF801F0E6F8CD
:101BA0001BE02D480FF08EFD2B480168A1624068B4
:101BB000E06212E0022000F0A1FBA060032000F030
:101BC0009DFBE06009E00CF06BFC0CF03BFC01F0CD
:101BD0008FF90CF055FC0CF025FC387803281AD14D
:101BE0001E4804F03FFBE880E8883188114F4843E5
:101BF0003946FEF795FAFEF79DFE6061184804F03D
:101C000031FB28812889318848433946FEF788FA14
:101C1000FEF790FEA06101222021024802F017F891
:101C2000F8BD000000040050080100208C000020D6
:101C3000B2000020FF0F00002401002000CCCC45A2
:101C4000A8040020F40400204000002044000020EC
:101C5000FFFF0000900500202C0600200200000479
:101C60001000001010B50E480C4901600D4941608C
:101C70000121C160002101618161C1610162F02126
:101C80008160FE21416102F017F8002801D000F0C8
:101C900073FE0021024801F0E7FF10BD0054004030
:101CA000A8040020563EA11010B50E480C49016052
:101CB0000D4941600121C160002101618161C16163
:101CC0000162F0218160FE21416101F0F5FF0028F1
:101CD00001D000F051FE0021024801F0C5FF10BD07
:101CE00000540040F4040020563EA11010B51BA083
:101CF00003C886B0019100901AA103C90290039114
:101D00001AA0006804900FF085FF0FF059FF184CDF
:101D1000052223466946174804F0BCF9322000F03A
:101D20007AFD2346062202A9124804F0B3F93220B4
:101D300000F071FD2346042204A90E4804F0AAF91C
:101D4000322000F068FD01220B490A4804F000F936
:101D5000FF20F53000F05FFD06B010BD5A0507000A
:101D6000660000005A063501009600005A04116F03
:101D7000FFFF0000CC090020F50000200178044896
:101D8000024A4368D1540121017070477B0B002047
:101D90001801002010B503480FF0B4FF02490020DD
:101DA000087010BD7D1D00081801002010B51248F4
:101DB000017801290ED100210170104B42689C5C12
:101DC000012C08D00D2C09D00A2C07D07F2A0DD069
:101DD000521C426010BD4160082009E0002AF9D081
:101DE0009954416005480FF057F810BD4160062036
:101DF0000EF0CCFB10BD0000180100207B0B002072
:101E00003EB50D4C6946227A0A70A27E8A70C8706F
:101E1000A06B0BF0B9FD0190206C0290607F6946C9
:101E20004870A07D08F084F8E18C206C4143081ACA
:101E3000616E401860663EBDFC010020FFB504469F
:101E400089B0002003900890069021891646002949
:101E500015D00190626904922069002A04D00029FB
:101E60000FD00A4692B20392002900D00E46E168D4
:101E7000884215D3039A61688018081A11E002207D
:101E8000E7E722686568135C471CAF4202D3451B35
:101E90006D1C00E03D46525D1202921C9A18E1E76B
:101EA00000200199751807950C994D43854201D280
:101EB000002102E00799FEF71DF9C8B20199884296
:101EC00008D9217FCA0700D106980690880701D556
:101ED000019800E00698002E6AD004994919081864
:101EE0006168884264D8002798E003980818616800
:101EF000884200D3401A20612189002911D121682C
:101F00000E546168401C814200D8401A2268310A90
:101F100011546168401C814200D8401A6169891CD3
:101F2000616161680D1AB54200D33546B5420DD0E6
:101F3000B54202D2217F002908D0002D6AD0217F2E
:101F4000CA0730D02189002913D019E039460A9AEE
:101F500071438918226810182A46FEF762F96069F1
:101F60004019606107990895002089B2751B03919B
:101F700040E02368FF22811E5A542168401E0A5403
:101F80006069401960610020089021893546002968
:101F90002AD1206805702168280A487061690220EA
:101FA000891C616120E089071ED52189002902D0A2
:101FB00000200DB0F0BD2168821E8D542268290AD0
:101FC000431ED15439460A9A714389182268101861
:101FD0002A46FEF726F96069401960610895A069F4
:101FE000751B401CA061D4E70199691889B203915F
:101FF00000212161002D0DD0089A0A993B468918CD
:1020000022687343101859182A46FEF70AF96069C6
:1020100040196061A069401C7F1CA0610C98216977
:10202000874200D261E7019808186168884200D3AE
:10203000401A21684018BCE710B5029C01600021DD
:10204000C160016141614260816103810477A00741
:1020500003D5002B01D0481E10BD002010BD00008C
:10206000F0B503890022002B09D0002300240C8046
:102070004469002C58D00289002A02D00DE00223C6
:10208000F4E7C26804684668A55C571CB74200D3F1
:10209000921B521CA25C1202AA1894B20C80027FFE
:1020A000D50729D0920727D4204A944202D1028929
:1020B000002A0AD0C468026994421DD90289002A04
:1020C0001AD045682C1B944216D24468C2684569F0
:1020D000A21AAA1A42610022C2600289002A0AD109
:1020E0000268012C157802D86442641C00E00124C7
:1020F000125D1202AA180A80C5684468EA18A24252
:1021000000D3121B06680F8892194669FF18F61B48
:10211000466106D009886918C918A14200D3091B75
:10212000C1608169491E81611046F0BDFFFF00005A
:10213000F0B503890022002B0AD0002700230B8072
:102140004369002B42D00389C268002B02D00DE006
:102150000227F3E705684468531CAE5CA3421346AC
:1021600000D31B1B5B1CEB5C1B02F3189CB20C80A6
:10217000037FDD0723D09B0721D4154B9C4202D15E
:102180000389002B0AD0C46803699C4217D90389CC
:10219000002B14D045682C1B9C4210D200221B043B
:1021A0001B0C0BD143680468012B02D85B425B1CFB
:1021B00000E00123E35C24781B021B190B80D1197A
:1021C0004268914200D3891A00680A181046F0BD8F
:1021D000FFFF0000FFB5002085B0009005460646D1
:1021E00001900024770007980121C05BA1400842BC
:1021F0002FD028190C2203905043089A1258002A15
:1022000027D0059A002A01D1490722D00899411800
:10221000082002910856021100070117069840B2E3
:1022200008F0ADF8002814D00298407A01010E9809
:102230000818C068002804D00198401CC0B2019062
:1022400007E0009A0F99039888540098401CC0B288
:102250000090641CE4B2102CC5D31035761CEDB28E
:10226000F6B2102DBDD3109901980870009809B0EE
:10227000F0BD000030B587B014216846FDF7EAFFD5
:10228000032001900020029003204003104C009096
:10229000E06A01210843E062E06A084005900520F9
:1022A0006946000701F00CFCE06A40084000E0626B
:1022B000606B0125AD052843606301F061F801F012
:1022C0006FF801F065F8606BA843606307B030BD3C
:1022D0000010024010B50FF0B7FC10BD10B5046837
:1022E00063608368102B036803D099600068C26044
:1022F00010BD9A600068C16010BD000070B5064650
:1023000000F0D8F93146442000F0E0F9214D28468C
:1023100000F081FA304600F0CDF93146BE2000F0E1
:10232000D5F9304600F07CF90446304600F078F9E3
:10233000052819D1502C17D1304600F0BBF9314691
:10234000442000F0C3F9284600F065FA304600F05A
:10235000B1F93146BE2000F0B9F9304600F060F91D
:102360000446304600F05CF9000200B2204308D574
:10237000C043401CFEF7F0FA0022074BFEF7E4F9D9
:1023800005E0FEF7E9FA0322D243FEF7BDFAFEF7B5
:102390009DFB70BDEE0200000000B0BF10B5002331
:1023A0000122194986B0012812D0052424070228E9
:1023B0001FD003281BD1C86A1043C862C86A1040E6
:1023C00005900815009069460193029220460CE0A2
:1023D000CC6A02200443CC62C96A01930140059192
:1023E0000820009002926946084801F069FB06B097
:1023F00010BDC86A1043C862C86AC007C00F059004
:1024000001204002DEE700000010024000040050FE
:1024100010B501221849022386B0012812D00524E4
:10242000240702281ED003281AD1C86A1043C862A4
:10243000C86A104005900815009069460393019200
:1024400020460BE0C86A1843C862C86A694618404B
:1024500005900820009003930192084801F030FB9A
:1024600006B010BDC86A1043C862C86AC007C00F72
:10247000059001204002DFE70010024000040050F8
:1024800070B50024012806D005252D0702282AD082
:1024900003284ED074E00120FFF780FF394D04E09F
:1024A000641CE4B2012000F0ABF90821284601F0D9
:1024B000C9FB002802D0642CF2D35FE0642C5DD20B
:1024C000002404E0641CE4B2012000F099F9082122
:1024D000284601F0B7FB002802D1F02CF2D34DE0E2
:1024E000F02C4BD24CE00220FFF758FF0126760279
:1024F00004E0641CE4B2012000F082F93146284671
:1025000001F0A0FB002802D0642CF2D336E0642C4A
:1025100034D2002404E0641CE4B2012000F070F91D
:102520003146284601F08EFB0028D9D1F02CF2D399
:1025300024E00320FFF732FF0126B60204E0641C0A
:10254000E4B2012000F05CF93146284601F07AFB44
:10255000002802D0642CF2D310E0642C0ED20024A8
:1025600004E0641CE4B2012000F04AF93146284638
:1025700001F068FB0028B3D1F02CF2D3012070BD2C
:10258000002070BD0004005070B5012806D005245D
:102590002407022813D003282BD025E00120FFF7C1
:1025A00037FF1E4C00220821204601F050FB0A2074
:1025B00000F026F90120FFF7F1FE08210EE00220CD
:1025C000FFF726FF01256D0200222946204601F073
:1025D0003EFB0A2000F014F9022018E0204601F02A
:1025E00031FB012817D000222D2000F009F91046F8
:1025F00070BD0320FFF70CFF0125AD020022294624
:10260000204601F024FB0A2000F0FAF80320FFF72F
:10261000C5FE2946E2E70122E6E70000000400507B
:1026200070B5002506462C463046FFF7ADFFA040AA
:102630002843641CE4B2C5B2082CF5D3284670BD0B
:1026400070B51A4D012814D005242407022825D07E
:10265000032822D1FFF7DCFE00220126B602314614
:10266000204601F0F4FA284600F0CAF8012231466B
:102670000DE00120FFF7CCFE0D4C00220821204682
:1026800001F0E5FA284600F0BBF8012208212046B7
:1026900001F0DDFA0F2000F0B3F870BD0220FFF763
:1026A000B7FE002201267602D9E70000EE02000004
:1026B0000004005010B50446FFF7C2FF2046FFF7A4
:1026C000DFFE2146CC2000F001F810BDF8B504462D
:1026D00001291FD005252D07022949D0032946D1FC
:1026E0000320FFF795FE00260127BF02E007C00F79
:1026F000640800286BD000223946284601F0A7FA6A
:10270000082000F07DF801223946284601F09FFAA2
:102710003A206AE00120FFF77BFE384E0025E007F3
:10272000C00F640800280ED000220821304601F0B6
:102730008EFA082000F064F801220821304601F0EA
:1027400086FA3A200DE000220821304601F07FFA97
:10275000462000F055F801220821304601F077FAB2
:10276000022000F04DF86D1CEDB2082DD7D3F8BD56
:102770000220FFF74DFE002601277F02E007C00F71
:10278000640800280ED000223946284601F05FFA7E
:10279000082000F035F801223946284601F057FAA2
:1027A0003A200DE000223946284601F050FA462032
:1027B00000F026F801223946284601F048FA0220A6
:1027C00000F01EF8761CF6B2082ED7D3F8BD002212
:1027D0003946284601F03BFA462000F011F8012264
:1027E0003946284601F033FA022000F009F8761C39
:1027F000F6B2082E00D279E7F8BD000000040050C0
:1028000006E00021491CC9B20429FBD3401E80B256
:102810000028F6D1704710B503F088FE10BD000007
:10282000F7B5174600260546EFF3108472B601F09F
:102830002BF80DE00198B10042582946022000F023
:10284000F9FF00280BD084F3108806A00BF09CF948
:10285000BE42EFDB00F0E4FF84F31088FEBD2D1DC7
:10286000761CF5E76572726F7220696E20454550DF
:10287000524F4D205772697465206572726F720DE8
:102880000000000010B5012001F00EF9022001F057
:102890000BF910BD10B5042001F006F9082001F075
:1028A00003F910BD70B5102001F0FEF8202001F0F2
:1028B000FBF8402001F0F8F8802001F0F5F8FF2047
:1028C000013001F0F1F80120400201F0EDF80120A3
:1028D000800201F0E9F80120C00201F0E5F80120D2
:1028E000000301F0E1F80120400301F0DDF8194C8C
:1028F0006069400429D5184801250078AD030028F7
:102900001FD01649097800291BD01549154A0B78A4
:102910000121062B05D014481160007800280AD048
:102920000FE0022801D003280BD110481160016884
:10293000491C016005E029460D4801F083F90D4965
:1029400008702846656101F0ABF80120C00301F072
:10295000ABF870BD0004014025010020A400002058
:1029600024010020B80000209E000020C4000020A8
:10297000000400509C000020FEE7000010B508494C
:1029800000224A6107494B684C1523434B604B6852
:10299000082423434B60C009C001026010BD000041
:1029A000140600200020024010B5214A0021906941
:1029B000C305204804D5416902231943416191159B
:1029C00093699B0505D54369012423434361630251
:1029D000194393695B0505D5436908242343436183
:1029E000E301194393691B0505D543690424234377
:1029F00043616302194393699B0405D5436910241D
:102A0000234343616302194393699B0304D54469DB
:102A100020231C43446119439369DB0305D54369B3
:102A2000402423434361A0020143916110BD000093
:102A3000002002401406002070B5054601F00EF992
:102A40000646184C0AE0681C08D0002D04D001F09E
:102A500005F9801BA84201D9032070BDA069C007F9
:102A6000F1D1A069800701D50220A061A069C0054D
:102A700011D4A06980050ED4A06940050BD4A069CB
:102A8000000508D4A069800405D4A069800302D49D
:102A9000A069C00303D5FFF787FF012070BD0020A8
:102AA00070BD00000020024010B5044600F062FF37
:102AB0000849002011C1012008600749054800F0BD
:102AC000F5FE002803D005A00BF05EF8FBE700F050
:102AD00029FF10BDB0020020000000206572726F57
:102AE0007220696E204572617365206F7065726136
:102AF00074696F6E0A0D0000F8B516460F4604465D
:102B0000002500F037FF0DE0A8003A5821460220CA
:102B100000F012FF002803D005A00BF035F8FBE70A
:102B2000241D6D1CB542EFDB00F0FCFEF8BD00007B
:102B30006572726F7220696E205772697465206FBA
:102B40007065726174696F6E0A0D000070B50D4694
:102B5000044600F00FFF21462A46022000F0ECFE5A
:102B6000002803D003A00BF00FF8FBE700F0DAFE1B
:102B700070BD00006572726F7220696E20577269B5
:102B80007465206F7065726174696F6E0A0D000064
:102B90000168024841604068704700000000002062
:102BA00000B587B014216846FDF754FB0D48C26A92
:102BB00002210A43C262C06A6A46084005900A4878
:102BC00001900020490302900091084803F0B0FBF7
:102BD00000220321072001F0FBFB072001F0EEFBA0
:102BE00007B000BD0010024000002110000400509A
:102BF00000B585B014216846FDF72CFB01216A461B
:102C00008903024803F094FB05B000BD00040050A6
:102C100000B587B014216846FDF71CFB0D48C26A59
:102C200002210A43C262C06A6A46084005900A4807
:102C300001900020490302900091084803F078FBBE
:102C400000220321072001F0C3FB072001F0B6FB9F
:102C500007B000BD00100240000011100004005039
:102C600000B587B014216846FDF7F4FA0D48C26A32
:102C700002210A43C262C06A6A46084005900A48B7
:102C800001900020490302900091084803F050FB96
:102C900000220321072001F09BFB072001F08EFB9F
:102CA00007B000BD001002400000311000040050C9
:102CB00000B587B014216846FDF7CCFA0B48C16A0D
:102CC00001221143C162C06A1103104000910590B6
:102CD00000200190022002900320039005206A4604
:102CE000000703F025FB07B000BD00000010024004
:102CF00000B587B014216846FDF7ACFA0A48C26AED
:102D000002210A43C262C06A08400590880200900E
:102D100003210020029001910391052069460007DC
:102D200000F0CEFE07B000BD0010024000B587B035
:102D300014216846FDF78EFA0B48C26A02210A4345
:102D4000C262C06A6A46084089020091059000206C
:102D5000019001200290032003900520000703F05A
:102D6000E7FA07B000BD00000010024000B587B0D0
:102D700014216846FDF76EFA0A48C16A0122114320
:102D8000C162C06A0321104005901003009000202A
:102D90000191039102906946034800F091FE07B04B
:102DA00000BD0000001002400004005000B587B0D4
:102DB00014216846FDF74EFA0A48C16A0122114300
:102DC000C162C06A1103104000910590002002907A
:102DD0000320019203906A46034803F0A9FA07B062
:102DE00000BD0000001002400004005006498000B1
:102DF00009580648091803D0C14203D00020704783
:102E00000120704702207047CC240108702FFCFF7E
:102E100010B5094A0021CB00D458844207D89B182A
:102E20009B68834203D9C8008018007910BD491CF3
:102E3000C9B21529EFD3FEE7901E010830B593B053
:102E400038216846FDF706FA01250024059508207B
:102E50000A940090684601F0BFFD002801D0FFF7FA
:102E60008BFD1B491B4812C004601B4984604160F4
:102E7000083802F08DFD002801D0FFF77DFD1421F8
:102E8000144802F08CFC0C2010900E9400220EA925
:102E90000F9511940F4802F0D5FC002801D0FFF7E0
:102EA0006BFD00210B4802F0A1FD002801D0FFF7C7
:102EB00063FD0A4CA0680228FCD10021054802F0FD
:102EC000B9FD044802F04EFD606813B030BD00004B
:102ED00000080140CC020020FFFF00000800002095
:102EE00010B503F09BFD0149486010BD580000205B
:102EF00010B503F093FD104C20606168884208D043
:102F0000401AFDF717FDE168FDF72CFBFDF746FDC4
:102F100000E00020A0600948007800280AD008A03E
:102F20000AF032FE0028FAD106A0A1680AF02CFEB1
:102F30000028F9D110BD0000580000200001002039
:102F40000D0A00005765696768742069732025645D
:102F500020670D0A00000000F8B50546044640351C
:102F6000287D0026012808D0012028752068816866
:102F70008907890F01290ED101E00220F8BD0168FF
:102F8000C90708D0A06D20210843A06501260020B4
:102F900028753046F8BDA16DFF220132914302220F
:102FA0001143A165C1688907890F0091C16889082B
:102FB0008900C1602068816892071143816000F038
:102FC0004DFE07460EE000F049FEC01B0A2809D955
:102FD000A06D0221884310210843A06500202875B8
:102FE0000120F8BD206880680028ECDB2068C168FB
:102FF000009A1143C160A06D80088000401CA0654C
:10300000C5E70000F8B506460D464036317D01297A
:103010000DD00121317501688A68520709D5816D8B
:10302000202211438165002030750120F8BD022067
:10303000F8BD174B6A68D80547109A42154C8A6A42
:103040002B6812D05B035B0B1A438A622968490321
:1030500005D5A1680143A1600A20FEF755F928684B
:10306000800312D5A06838430EE05B035B0B9A43E4
:103070008A622968490302D5A1688143A160286852
:10308000800302D5A068B843A06000203075F8BD69
:1030900001100000002701400068006C704700002C
:1030A00070B5040006D0A06D2646002540360028E5
:1030B00002D006E0012070BDE5653575204600F0C0
:1030C000D1F8A06DC00603D421688868400705D5F3
:1030D000A06D10210843A0653575EBE7A06DFF22B8
:1030E0000132904302221043A06588688207920F44
:1030F0005A48012A02D10A68D2072BD103236268F9
:103100009B079A4205D05B429A4202D05B009A42EA
:1031100009D10A69920092080A6121680A69636804
:103120001A430A610CE00A69920092080A618168F8
:103130000F2292049143816081686268114381602B
:103140002168CA6818239A43CA602168CA68A368BC
:103150001A43CA60816801225206914381608168E6
:10316000228F52061143816020688168C90004D40F
:10317000816801221207114381602068C168384AC2
:103180001140C1602169E068022923D00021084371
:10319000216A226B4903520011430843616B0843C3
:1031A000A16989030843E169C90308432168CA6822
:1031B0001043C860A06A0146FF39C23905D0E16AF0
:1031C00008432168CA681043C860606A0121012869
:1031D00002D00BE00421DAE7206A002823D0A06D9A
:1031E00020221043A065E06D0843E065206C0128B3
:1031F00020681FD00169C90703D001694908490047
:10320000016120684169C908C900416120684169BC
:10321000E26B11434161E565A06D80088000401CB0
:10322000A065002070BD2068C26801231B041A43FA
:10323000C260DBE70269FF239B009A4302612068BA
:103240000269636CE66C1A43A36C33431A43026150
:10325000206802690A430261D3E7000000270140A9
:103260001902FEFF7047F8B504464069254640350F
:103270000E4608280BD02068C068C00709D0A06D92
:1032800020210843A065002028750120F8BD0827EB
:1032900000E00C2700F0E2FC009011E0701C0FD061
:1032A000002E05D000F0DAFC0099401AB04207D990
:1032B000A06D04210843A065002028750320F8BDF7
:1032C000206800683842E9D0A06D01214902084316
:1032D000A0652068C16809058A0F0C21002A1AD14F
:1032E000226A002A17D10268120714D58268530790
:1032F0000122002B08DB43688B434360A06D13025F
:1033000098431043A06506E0A06D20231843A065F4
:10331000E06D1043E065A069002801D120680160DC
:103320000020F8BD70B5044621680020896849076F
:1033300021D425464035297D01291CD0012129753C
:10334000E169012904D02046FDF7F0FF002811D1E2
:10335000A16D0A4A1140FF2201321143A1650021EB
:10336000E165297522681C21116021688A6804239F
:103370001A438A6070BD022070BD0000FEF1FFFF9D
:1033800002484168490849004160704700580140BF
:10339000024841680422914341607047005801404F
:1033A0000248416802229143416070470058014041
:1033B00070B50024024620325179022903D004213D
:1033C000C16301243CE001680B680E25AB430B6030
:1033D00001680B685B085B000B601A4B016899423F
:1033E00001D1012121E0174B1433994201D1102161
:1033F0001BE0144B2833994201D1891515E0114B7C
:103400003C33994201D189140FE00E4B503399425D
:1034100002D10121090408E00A4B6433994202D128
:103420000121090501E001210906064B083B59600D
:103430000121517100211171816B002900D0884751
:10344000204670BD08000240F8B504469D4801685A
:103450009C4A9C4E9B4F0832206813041C36303720
:10346000904201D108221EE0B04201D180221AE030
:10347000B84202D10122D20215E0924A443290426F
:1034800002D10122D2030EE08E4A5832904201D17D
:103490001A4608E08B4A6C32904202D10122D205D2
:1034A00001E00122D20625461140203500293BD0FB
:1034B0000168090738D501680822914301608149F4
:1034C00020680831884201D108201EE0B04201D1B5
:1034D00080201AE0B84202D10120C00215E07949EB
:1034E0004431884202D10120C0030EE075495831B1
:1034F000884201D1184608E072496C31884202D1F5
:103500000120C00501E00120C0066E494860E06B63
:1035100001210843E0630420687100202871616B79
:10352000002901D02046884766480168654A20681E
:1035300008321315904201D104221EE0B04201D19D
:1035400040221AE0B84201D11A4616E05D4A4432E0
:10355000904202D1012292030FE05A4A583290421F
:1035600002D10122920408E0564A6C32904202D104
:103570000122920501E001229206114238D0016831
:10358000490735D50168890603D4026804218A43B6
:1035900002604C4920680831884201D104201EE0B5
:1035A000B04201D140201AE0B84201D1184616E0DD
:1035B00044494431884202D1012080030FE041494F
:1035C0005831884202D10120800408E03D496C3125
:1035D000884202D10120800501E00120800639499E
:1035E000486005206871216B002901D0204688477A
:1035F00034480168334A206808325315904201D19B
:1036000002221EE0B04201D120221AE0B84201D1CC
:103610001A4616E02B4A4432904202D1012252034C
:103620000FE0284A5832904202D10122520408E0A9
:10363000244A6C32904202D10122520501E001225B
:10364000520611423CD00168890739D501688906C4
:1036500003D401680222914301601A4920680831AD
:10366000884201D102201EE0B04201D120201AE0A0
:10367000B84201D1184616E012494431884202D1BD
:10368000012040030FE00F495831884202D1012048
:10369000400408E00B496C31884202D1012040050A
:1036A00001E00120400607494860E06BE06301202B
:1036B000687100202871E16A002901D020468847FE
:1036C000F8BD00000000024070B5002805D0034698
:1036D00020335979002902D003E0012070BD002178
:1036E000197102215971046822683749C5680A4076
:1036F000816846692943056935432943856929431A
:10370000C5692943056A2943114321602F492F4C7C
:1037100002687831A24206D18A6A120912018A62CD
:103720008A6A406849E0294C1434A24207D18A6A67
:10373000F024A2438A628A6A406800013DE0234C7B
:103740002834A24208D18A6A0F242402A2438A6242
:103750008A6A4068000230E01C4C3C34A24208D126
:103760008A6A0F242403A2438A628A6A406800039B
:1037700023E0164C5034A24208D18A6A0F24240454
:10378000A2438A628A6A8088000416E00F4C64347F
:10379000A24208D18A6A0F242405A2438A628A6A57
:1037A0008088000509E08A4209D18A6A0F2424062C
:1037B000A2438A628A6A0079000602438A62012073
:1037C0005871002070BD00000FC0FFFF08000240CC
:1037D000F8B5044620300579012D1ED0012505716C
:1037E0000226467120680768AF4307602046FEF74F
:1037F00075FD20680168314301602068016804227A
:1038000011430160206801680822114301602068AB
:103810000168294301600020F8BD0220F8BD0000C6
:1038200003484168012211434160002070470000B5
:1038300000200240F8B5124D0746287C14460E467B
:10384000012807D0012028740E48FFF7F5F800285A
:1038500002D00CE00220F8BD00216961022F09D0DE
:10386000012F09D0002F09D00648FFF7E5F8002105
:103870002974F8BD3460FAE73480F8E73470F6E76D
:103880001406002050C3000005484168C90705D050
:103890000449C1600449C16000207047012070479D
:1038A00000200240EFCDAB8905040302F8B51A4EA3
:1038B0000546307C0F46012807D001203074174898
:1038C000FFF7BAF8010002D021E00220F8BD002085
:1038D000C04338606C6814E02046FFF74FF80F488B
:1038E000FFF7AAF801460E48426808239A4342604F
:1038F000426843159A434260002901D03C6006E0CB
:103900008034A8686A68C0018018A042E4D800200A
:1039100030740846F8BD00001406002050C30000B3
:103920000020024003484168022211434160002008
:103930007047000000200240F8B50C4C1646207C71
:103940000F46012808D0012020740948FFF774F8B9
:103950000025002802D006E00220F8BD65613E6027
:103960000348FFF769F82574F8BD0000140600202D
:1039700050C300000948416889070CD54168C90750
:1039800003D00749C1600749C16007490161074980
:1039900001610020704701207047000000200240B4
:1039A000EFCDAB8905040302BFAE9D8C1615141331
:1039B000F0B5002362E001249C4022460A405CD01E
:1039C00006685F000325BD402E43AC460660DD0857
:1039D000AD002D182E6AAE465D07EF0E0F25BD40D7
:1039E000AE4375462E6286686546AE43866045687E
:1039F000A5434560C4686546AC43C4609D08214C3E
:103A0000AD002D19AF689C07260F0F24B440A446C3
:103A10003C4005273F07B84201D1002719E01A4F63
:103A2000B84201D1012714E0184FB84201D1022752
:103A30000FE0174FB84201D103270AE0154FB842F3
:103A400001D1042705E0144FB84201D1052700E059
:103A50000627B740A74210D1AE686446A643AE60C1
:103A60000E4C256895432560656895436560A5689B
:103A70009543A560E5689543E5605B1C0A46DA401E
:103A800099D1F0BD00000140000400500008005032
:103A9000000C005000100050001C005000040140B9
:103AA00010B502F06FFC10BD10B504494A6902421E
:103AB00002D04861FFF7F4FF10BD00000004014090
:103AC000F8B500230124A7E027469F403A4070D074
:103AD0004D68022D01D0122D14D1DD08AD002D1836
:103AE00000952D6A5E07AC46F50E0F26AE46AE4039
:103AF0006546B543AC460E697546AE4065462E43F5
:103B0000009D2E624D68012D05D0022D03D0112D90
:103B100001D0122D16D185680326AC465D00AE4655
:103B2000AE406546B543AC46CE687546AE40654688
:103B30002E43866046680D79BE43ED06ED0F9D402D
:103B40003543456006685F000325BD40AE46AE4381
:103B50000D79B446AE07B60FBE4065462E430660EB
:103B6000C6687546AE438D68BD403543C5604D6837
:103B7000ED0050D52B4D6E6B26436E639E082A4D8B
:103B8000B6007519AC46AD689E07360F0F27B740D3
:103B9000BD4305273F07B84201D100271AE0234F54
:103BA000B84201D1012715E0214FB84202D10227C6
:103BB00010E030E01F4FB84201D103270AE01E4F4A
:103BC000B84201D1042705E01C4FB84201D10527B6
:103BD00000E00627B7402F436546AF60184D2E68BA
:103BE0004F689643FF0300D516432E606E684F68FA
:103BF0009643BF0300D516436E60AE684F68964388
:103C0000FF0200D51643AE60EE684F689643BF02D0
:103C100000D51643EE605B1C0A681546DD4000D0F7
:103C200052E7F8BD001002400000014000040050BF
:103C300000080050000C005000100050001C005004
:103C4000000401400069084000D001207047002AAC
:103C500001D08161704781627047000001480068AF
:103C6000704700008800002070B50246403253784B
:103C7000202B1CD11378012B19D00123137024247D
:103C80005470046825689D432560046825681E03F8
:103C9000B5432560046825680D4325600068016808
:103CA00019430160202050700020107070BD022068
:103CB00070BD406C7047000070B5040006D025460A
:103CC000403568780026002802D005E0012070BD4C
:103CD0002E70204600F0D0FA242068702068016819
:103CE0004908490001600F2160680906884321687E
:103CF000086121688A680120C00382438A60E16804
:103D00000129A16808D02122920211432268916002
:103D1000E168022902D005E00143F7E701212268AA
:103D2000C902516021684A680F4B1A434A602168F2
:103D3000CA688243CA60616920690843A1690902AF
:103D400008432168C860216AE06908432168086067
:103D500020680168012211430160666420206870B8
:103D60002663AE70002070BD00800002FFB50546DE
:103D700004464035687881B020287ED12878012813
:103D80007BD001202870FFF769FF074601220090D1
:103D90001923D103204602F077FF00283FD12220CB
:103DA00068701020A870002666640398606204980A
:103DB00060856663618D09208002FF2903D9FF2297
:103DC0002285009034E0618D2185009036E0204608
:103DD000029902F047FF36E002F07AFF002803D094
:103DE000606C042847D01AE02068416A606A421C6F
:103DF00062620170208D401E80B22085618D491E57
:103E0000618500281FD1608D00281CD000970022FA
:103E1000802120460A9B02F037FF002802D00320B1
:103E200005B0F0BD608DFF2805D9FF2222850096E0
:103E300001231B06CBE7608D20850096208D012392
:103E4000C2B25B06C3E7608D0A9900283A46204655
:103E5000C2D102F079FF0028C2D121682020C861B8
:103E600021684A68064B1A404A606870AE702E702E
:103E70000020D5E701E00120D2E70220D0E70000D2
:103E800000E800FEFFB5054604464035687881B07D
:103E900020287ED1287801287BD001202870FFF7C8
:103EA000DDFE0746012200901923D103204602F0CF
:103EB000EBFE00283FD1212068701020A87000265A
:103EC000666403986062049860856663618D012072
:103ED0004003FF2903D9FF222285009034E0618D41
:103EE0002185009036E02046029902F0BBFE36E0C4
:103EF00002F051FF002803D0606C042847D01AE07C
:103F0000606A411C6162017820688162608D401E98
:103F10006085208D401E0004000C20851FD1608D1F
:103F200000281CD000970022802120460A9B02F026
:103F3000ABFE002802D0032005B0F0BD608DFF2845
:103F400005D9FF222285009601231B06CBE7608D51
:103F500020850096208D0123C2B25B06C3E7608DE9
:103F60000A9900283A462046C2D102F0EDFE002808
:103F7000C2D121682020C86121684A68064B1A40D6
:103F80004A606870AE702E700020D5E701E0012015
:103F9000D2E70220D0E7000000E800FEFFB50546AA
:103FA00004464035687883B0202873D10C980028E7
:103FB00071D00D9800286ED0287801286AD0012091
:103FC0002870FFF74BFE0746012200901923D1030A
:103FD000204602F059FE002876D122206870402049
:103FE000A870002666640C9860620D986085666310
:103FF0000E980090019704A90EC9204602F0C8FD52
:10400000002804D0606C2E70042860D05CE0618DC4
:1040100009208002FF2905D9FF22228501231B06E2
:10402000009006E0618D21850090208D0123C2B2B1
:104030005B062046049902F015FE00970022042139
:1040400020460E9B02F020FE00283DD12068416AE8
:10405000606A421C62620170208D401E81B221851F
:10406000608D401E6085002921D1608D00281ED002
:1040700000970022802120460E9B02F005FE0028BA
:1040800022D1608DFF2807D9FF22228501231B063C
:10409000009608E02AE01AE0608D20850096208DC9
:1040A0000123C2B25B062046049902F0DBFD608D5D
:1040B0000028C2D13A4620460E9902F045FE00285B
:1040C00007D0606C042802D0032007B0F0BD0120A7
:1040D000FBE721682020C86121684A68044B1A4028
:1040E0004A606870AE702E700020EEE70220ECE7A8
:1040F00000E800FEFFB5054604464035687883B009
:10410000202876D10C98002874D00D98002871D002
:10411000287801286DD001202870FFF79FFD074601
:10412000012200901923D103204602F0ADFD0028A2
:1041300053D1212068704020A870002666640C9836
:1041400060620D98608566630E980090019704A9DF
:104150000EC9204602F051FD002804D0606C2E707C
:1041600004286AD039E0608DFF2805D9FF22228516
:1041700001231B06009606E0608D20850096208DA9
:104180000123C2B25B062046049902F06BFD3A4659
:1041900020460E9902F0FFFD002803D0606C042831
:1041A0004BD01AE0606A411C616221680078886225
:1041B000608D401E6085208D401E0004000C20850F
:1041C00024D1608D002821D0009700228021204634
:1041D0000E9B02F059FD002802D0032007B0F0BD6D
:1041E000608DFF2807D9FF22228501231B06009638
:1041F00008E024E021E0608D20850096208D0123D9
:10420000C2B25B062046049902F02CFD608D0028A6
:10421000BDD13A4620460E9902F096FD0028BDD148
:1042200020682021C16120684268064B1A40426024
:104230006970AE702E700020D0E70120CEE702201A
:10424000CCE7000000E800FE10B50948826A0121B1
:1042500049050A438262826A8A438262054C402190
:104260002046FFF7A5FB80212046FFF7A1FB10BDEC
:10427000001002400004005030B58FB008200590B7
:1042800040020A9005A800F0D1F91548C26A02213F
:104290000A43C262C26A0A400E92C26A0A43C262FA
:1042A000C26A0A400E92816B01225205114381635A
:1042B0004020009012200190002002900320094D20
:1042C00001240390694604942846FFF7F9FB8020F7
:1042D0000090694604942846FFF7F2FB0FB030BD0A
:1042E000001002400004005070B504000FD0216897
:1042F0001348086021681348086003CC41602068B7
:10430000083C21688860FFF7A9FC054608E0012009
:1043100070BDFFF7A3FC401B302801D9032070BDFE
:104320002068C0680028F4D120680269E1688A42E8
:1043300001D0016101E004490160002070BD00006E
:10434000CCCC000055550000AAAA00000068024924
:104350000160002070470000AAAA0000024801681E
:10436000491C0160704700008800002010B5064815
:104370000168022211430160032000F007F800F0F9
:1043800007F8002010BD0000002002400020704708
:1043900010B50848816B02041143816300F02CF8CA
:1043A00000F022F80448016808221143016000F07F
:1043B00013F810BD0010024000200240C106C90ED3
:1043C00001208840014908607047000000E100E0DA
:1043D00010B504F0D3F910BD02480168021511436D
:1043E00001607047007000400248016842151143A7
:1043F000016070470070004002480168102291433C
:104400000160704700700040094B1A6892089200E2
:1044100002431A600748026904239A430261012992
:1044200003D040BF20BF20BF704730BF704700009F
:104430000070004000ED00E00A4B1A6892089200FC
:1044400002431A60084803690422134303610129E7
:1044500006D040BF20BF20BF016991430161704772
:1044600030BFF9E70070004000ED00E0F8B56649A4
:10447000074601250020ED03624B634A4031102FAF
:104480006FD011DC012F77D0022F6CD0042F6BD0AE
:10449000082F24D1C9680324240321407BD0BD0206
:1044A0006C10A9427CD0A0E00326584C3604202F83
:1044B0000BD0402F35D0FF3F012F10D1C9683140BC
:1044C00069D07C04A1426BD096E00B690969012791
:1044D00031403F04B94203D1990559E02846F8BD5F
:1044E00001256D04A94203D19907F8D54848F8BDC4
:1044F000B142FCD111688903F9D511680320000588
:10450000014001200005091A09D0091A05D081428D
:1045100001D14048F8BD2046F8BD3F48F8BD3F48AE
:10452000F8BDC9680125AD06294006D0A942F7D1DA
:1045300091688907F4D53A48F8BD11688901FBD51F
:10454000D068D1688002374D000F2D5C0802810FC2
:10455000D068491CC0030AD41068C00605D520469F
:1045600006E045E008E023E030E0184600E02E4891
:104570006843FBF7BFFDF8BDCC68A407A40F0CD0BF
:10458000022C0DD0012C10D0032CF4D1096989051F
:104590000029A3DBF8BD16E002E000F0D1F9F9E74D
:1045A00011684907F6D51846F4E700F0D9F9F1E7A4
:1045B000CC680C26344006D0082CF1D0042CF4D062
:1045C0000C2CE3D0E6E700F0ABF9E3E7CC68032678
:1045D000B6023440F7D00127FF02BC42E0D07A1087
:1045E0009442E2D0B442D1D0D4E7A142DDD0D1E7A9
:1045F000916B4902E7D4CDE7012212049142D4D055
:10460000C8E700000024F4000010024000093D004B
:104610008890000020A1070040420F0080841E0007
:10462000006CDC02B81F010800127A00F8B50446DD
:1046300000785E4D800672D55C4E0027403EB06B20
:10464000C00004D4B06BA9050843B06301275848E3
:104650000168C90511D40168821511430160FFF793
:10466000FDFA009005E0FFF7F9FA0099401A642876
:1046700037D84F480068C005F5D5326803210905D1
:1046800060680A400140914208D08103890F0329E4
:1046900004D13168890301D50120F8BD2A690321BD
:1046A00009040A4022D0084090421FD0207880069A
:1046B0001CD528692A6988430121C9040A432A6153
:1046C0002A698A432A612861C0050FD5FFF7C6FA17
:1046D000009008E0FFF7C2FA0099411A354881427C
:1046E00001D90320F8BD28698005F3D561688803E6
:1046F000800F032805D132680005824301400A4338
:10470000326028690322616812041140084328615D
:10471000002F04D0B06B012109078843B0632078D3
:10472000C00705D0E868A168800880000843E860F9
:104730002078800705D5E8680C218843E1680843A4
:10474000E8602078400706D5E8680321890288439D
:1047500021690843E8602078000706D5E86803214E
:104760000903884361690843E8602088C00506D5CD
:10477000E868032109048843A1690843E8602078B8
:10478000400606D5E868012189068843216A084366
:10479000E8602078000606D5E8680321890488438C
:1047A000E1690843E8600020F8BD000040100240C5
:1047B0000070004088130000F8B5054653480E46C7
:1047C0000068C007C00FB0420AD2504801684908CB
:1047D0004900314301600068C007C00FB0426FD18B
:1047E00028784B4C800705D5E068F0218843A968FC
:1047F0000843E0602878C00752D06868022817D0C4
:10480000032818D02168012818D08905002957DA13
:10481000E168890889000143E160FFF71FFA6968D0
:104820000746022912D003291CD0012926D033E0E3
:1048300021688903EAE721688901E7E74907E5E795
:10484000FFF70CFAC11B3348814223D8E068000708
:10485000800F0228F4D123E0FFF700FAC11B2D4896
:10486000814217D8E0680007800F0328F4D117E0D1
:10487000FFF7F4F9C11B274881420BD8E068000715
:10488000800F0128F4D10BE0FFF7E8F9C11B2148A4
:10489000814201D90320F8BDE0680007800FF3D101
:1048A0001A480168C907C90FB1420BD90168490804
:1048B0004900314301600068C007C00FB04201D019
:1048C0000120F8BD2878400706D5E06807210902D5
:1048D0008843E9680843E0602878000707D5E06866
:1048E0000721C90288432969C9000843E06000F034
:1048F00037F8E168084A0906090F515CC8400749C2
:1049000008600320FFF742FD0020F8BD00200240B0
:104910000010024088130000A81F01088400002036
:10492000044805490068C968044A4905490F515CB3
:10493000C84070478400002000100240C11F0108D9
:10494000044805490068C968044A8904490F515C54
:10495000C84070478400002000100240C11F0108B9
:1049600010B5184AD1680C20084004280BD008283C
:1049700010D00C2810D050680004410F0120C00353
:10498000491C884010BD1068C00601D50E4810BDF6
:104990000E4810BD0E4810BD88020E4B000F185C6B
:1049A0000902D368890F491CDB0301D5084A05E0D9
:1049B0001268D20601D5044A00E0044A5043FBF7CE
:1049C00099FB10BD0010024000093D000024F400D6
:1049D00000127A00B81F0108F8B504460078FF4DB0
:1049E000C0074CD0E8680007800F022807D0E868AD
:1049F0000007800F032809D1E868C00306D528689E
:104A000080033CD56068002875D038E001206268DA
:104A10000004824203D129680143296011E0052383
:104A200001211B0489049A422A6802D10A432A60A0
:104A3000F1E782432A602A6802400092286888438E
:104A40002860606800280DD0FFF708F90646E44F9B
:104A500004E0FFF703F9801BB8427DD82868800383
:104A6000F7D50CE0FFF7FAF80646DD4F04E0FFF754
:104A7000F5F8801BB842F0D828688003F7D4207876
:104A8000800741D5E8681F270007800F3F020128F3
:104A900007D0E8680007800F032809D1E868C00341
:104AA00006D42868400717D5E068012823D113E011
:104AB000E068002817D02968092291430143296042
:104AC000FFF7CCF8064604E0FFF7C8F8801B022881
:104AD000C3D828684007F7D568682169B843090238
:104AE0000843686010E02868400840002860FFF72D
:104AF000B5F8064605E090E0FFF7B0F8801B022805
:104B0000ABD828684007F7D42078C00676D5E86887
:104B1000B44E0007800F0BD0E06900285DD02868F4
:104B2000FF21013108432860FFF798F8074644E069
:104B30002868800502D5E06900286ED0606A69683F
:104B40003140884212D904F0FBFF0028AED16868DA
:104B5000616AB043084300E0E4E068606868218C63
:104B60000002000A0906084368600FE06968B14363
:104B7000014369606868218C0002000A0906084345
:104B80006860606A04F0DCFF00288FD1606A410B26
:104B90000120C003491C8840E968934A0906090FAF
:104BA000515CC840914908600320FFF7EFFB25E006
:104BB000FFF754F8C01B02288AD828688005F7D56B
:104BC0006868616AB043084368606868218C0002C5
:104BD000000A09060843686010E02968FF200130D8
:104BE00081432960FFF73AF8064604E0FFF736F8FC
:104BF000801B022884D828688005F7D420787C4E52
:104C0000000723D560690028306910D001210843CE
:104C10003061FFF723F8074605E009E1FFF71EF8CA
:104C2000C01B02287ED830698007F7D50EE0400807
:104C300040003061FFF712F8074604E0FFF70EF876
:104C4000C01B02286ED830698007F7D4207840074F
:104C500061D5A86B0027C00005D4A86B0121090706
:104C60000843A863012763480168C90511D4016896
:104C7000821511430160FEF7F1FF009005E0FEF799
:104C8000EDFF0099401A64284CD85A480068C005C6
:104C9000F5D5FF20A2680130824203D1316901437A
:104CA000316111E001218902002A07D005231B028E
:104CB0009A4203D132690A433261EFE73269824393
:104CC0003261306988433061A06800280ED0FEF759
:104CD000C5FF009006E0FEF7C1FF0099411A404869
:104CE00081421FD830698005F5D50DE0FEF7B6FF8B
:104CF000009006E0FEF7B2FF0099411A3848814261
:104D000010D830698005F5D4002F04D0A96B01209C
:104D100000078143A9632078800630D53649A06911
:104D20004A1400E07DE0002816D0AB680120034360
:104D3000AB606B6B03436B63086A10430862FEF75A
:104D40008DFF064604E0FEF789FF801B022868D825
:104D5000A8688007F7D512E0A86840084000A8605E
:104D6000086A90430862FEF779FF064604E0FEF702
:104D700075FF801B022854D8A8688007F7D4A06A62
:104D8000002853D0E9680907890F032950D001266C
:104D900036060228286805D0B0432860FEF75EFF7B
:104DA000044640E0B0432860FEF758FF074604E0A1
:104DB000FEF754FFC01B022833D828688001F7D4BF
:104DC000216BE06AEA680843616BFD231B049A4388
:104DD00011430843E860286830430FE000100240A8
:104DE0008813000000E00000A81F010884000020D4
:104DF0004010024000700040000001402860FEF7B3
:104E00002DFF044604E0FEF729FF001B022808D806
:104E100028688001F7D509E0FEF720FF001B022873
:104E200001D90320F8BD28688001F5D40020F8BD21
:104E30000120F8BD30B5014620310A78012A15D08D
:104E400001220A7002234B700468CA23636204685B
:104E50005323636203689C6820252C439C60006890
:104E6000FF2343624A700020087030BD022030BD2D
:104E700010B508F0ABFD10BDF8B505460446203569
:104E8000287801281DD0012028700220687022682F
:104E9000CA205062226853205062FF200130002651
:104EA000FF2781421CD121688A6882438A6020687A
:104EB00081680122120391438160FEF7CFFE0090CA
:104EC00009E00220F8BDFEF7C9FE0099411A7D20D5
:104ED000C00081421BD82068C068C007F3D020E022
:104EE00020688168012252029143816020688168B4
:104EF000120191438160FEF7B1FE00900DE0FEF7D4
:104F0000ADFE0099411A7D20C000814205D920687C
:104F10004762032068702E70F8BD2068C068800763
:104F2000EDD520684762012068702E700020F8BD22
:104F300010B500680B464068C021C943014000021B
:104F4000000ECC04D870E40E5C708C06A40E09042C
:104F5000490F9C701970002A0AD104F02DFED870F8
:104F6000587804F029FE5870987804F025FE98705F
:104F7000002010BD30B50B460168896A5960016890
:104F800009694904490C9960006804680F48214682
:104F9000014088024D04800E18706D0E49065D7048
:104FA000490E99706102490E40242140D970002AAF
:104FB0000AD104F001FE1870587804F0FDFD587015
:104FC000987804F0F9FD9870002030BD7F7F7F0055
:104FD00070B5040005D0254620356878002802D039
:104FE00006E0012070BD00202870204600F042F845
:104FF000022068702168CA204862216853204862F4
:10500000204604F0ECFDFF210028206803D0416217
:1050100004206870E5E78268154B1A4082602268B8
:1050200090686368A6691843236933431843906006
:105030002268E06810612068026923891B041A4312
:1050400002612068C26880239A43C2602068C26CF3
:1050500092089200C264E269606902432068C36CEE
:105060001A43C2642068416201206870002070BD4C
:10507000BFFF8FFF00B597B00420009000200A907A
:10508000FF20013002906846FFF7A6FC002801D0FF
:10509000FDF772FC20200E90C0020F900EA8FFF7C3
:1050A000C5FA002801D0FDF767FC08480169012214
:1050B000920411430161002211460220FFF788F992
:1050C0000220FFF77BF917B000BD0000401002403E
:1050D000FEB506460446203630780B46012842D0FD
:1050E000012030700220707020681D460027203596
:1050F0008068002A39D0400655D5187804F05CFD48
:10510000287804F059FD19789878090408435978EB
:10511000DA78090212041143084329780906084382
:10512000D96908435969084305469969586808438D
:1051300000902168CA204862216853204862FF20FD
:105140005A6A0130802182424AD12268936883439F
:1051500093602268D0680840FF388238D060FEF73C
:105160007DFD019029E00220FEBD400600D4DF70E5
:10517000187804F029FD0204587804F025FD000297
:105180000243987804F020FD0243D87800040243DB
:10519000287804F019FD00060243D86902435869D3
:1051A00002431546C1E7DF70AAE7FEF757FD0199F4
:1051B000411A7D20C00081422AD82068C068C007FB
:1051C000F3D02068C5612168009848642068816830
:1051D000FF2201321143816020688168120130E0B2
:1051E0002068826801235B029A4382602068C2685B
:1051F0000A401D495118C160FEF730FD01900EE0D4
:10520000FEF72CFD0199411A7D20C000814206D98C
:105210002168FF204862032070703770FEBD20684F
:10522000C0688007ECD52068056221680098886412
:1052300020688168012252021143816020688168E0
:1052400012011143816009480268012149040A439F
:10525000026082680A4382602168FF204862012060
:10526000707037700020FEBD7FFDFFFF000401401D
:10527000F8B505460446203528780B46012815D098
:1052800001202870022068705878002A10D004F09D
:1052900093FC987804F090FCD8789E78000406433C
:1052A0005878197800024903084316E00220F8BD37
:1052B000C10603D5EF2108400A305870D87804F0B1
:1052C00083FC0604587804F07FFC000206439878BB
:1052D00004F07AFC06431878400306432168CA208C
:1052E0004862216853204862204604F078FC002779
:1052F000002811D110480640206846602068C16827
:1053000080229143C1602068806880060CD42046CA
:1053100000F08CF8002807D02168FF2048620420A4
:1053200068702F700120F8BD2168FF2048620120BD
:1053300068702F700020F8BD3FFFFF00F8B50646EB
:105340000446203630780D4601280ED001203070FA
:1053500002207070206800278068002A07D040066D
:105360001AD5287804F028FC17E00220F8BD400682
:1053700000D4EF70287804F027FC0204687804F069
:1053800023FC00020243A87804F01EFC0243E878E4
:105390000004024300920BE0EF702978A87809041A
:1053A00008436978EA78090212041143084300901F
:1053B0002168CA204862216853204862204604F0D0
:1053C0000EFC00281FD11849009808402168086089
:1053D0002068816801229204914381602969E8680C
:1053E000084321688A68104388602068C168802269
:1053F0009143C1602068806880060CD4204600F08C
:1054000015F8002807D02168FF204862042070703A
:1054100037700120F8BD2168FF20486201207070BC
:1054200037700020F8BD00007F7F7F0070B5044614
:105430000068C168A0229143C160FEF70FFC7D2681
:105440000546F60006E0FEF709FC401BB04201D914
:10545000032070BD2068C0688006F4D5002070BDB0
:1054600070B5040006D025464035687C002600282B
:1054700002D005E0012070BD2E74204600F032F805
:105480000220687420680168402291430160A1688D
:10549000606822690843E168114308436169012299
:1054A0000843A169520211400843E1690843216A97
:1054B0000843A16A084321680860A0690421000C20
:1054C0000840616A0843216848602168E06A086111
:1054D0002068C16992009143C161666501206874CA
:1054E000002070BD7047F8B5044600276846078065
:1054F00026464036707C012802D0707C22287ED15E
:1055000000290CD0002A0AD0002B08D0307C0128BA
:1055100075D001203074707C012802D003E0012096
:10552000F8BD322070746765A263A387E3872163A7
:10553000A386E386A764E7640125A06A6D03A842F9
:1055400007D120680168A9430160206801682943E8
:10555000016020680168490603D4016840221143B4
:1055600001600121FF20E268C90205308A426168BA
:1055700066D1002904D081420CD1E08E012809D1E6
:10558000206B21680088C860206B801C2063E08E3F
:10559000401EE086E08E002843D1A06AA84246D192
:1055A0002068016801221203114301603FE0206876
:1055B000C068A16B0880A06B801CA063B0E00022D3
:1055C00002212046069B05F039FF00287DD1206B83
:1055D00021680088C860206B801C2063E08E401E1C
:1055E000E086E08E002808D1A06AA84205D1206894
:1055F00001680122120311430160002200E0CCE0A7
:1056000001212046069B05F019FF00287FD1206864
:10561000C068A16B0880A06B801CA063E08F401E57
:10562000E087E08E0028CAD1606800287BD1002284
:1056300001212046069B05F001FF002867D1B6E74F
:10564000002904D081420BD1E08E012808D1206BC3
:10565000411C216321680078C860E08E401EE0860E
:10566000E08E002845D1A06AA84205D120680168D3
:105670000122120311430160002201212046069BF2
:1056800005F0DCFE002842D12068C068A16B0870DC
:1056900046E0002202212046069B05F0CFFE0028AE
:1056A00035D1206B411C216321680078C860E08EF1
:1056B000401EE086E08E00280AD1A06AA84207D1E9
:1056C000206802680121090300E020E00A4302602B
:1056D000002201212046069B05F0B0FE002816D1CD
:1056E0002068C268A06B411CA1630270E08F401E5D
:1056F000E087E08E0028CCD16068002813D100221A
:1057000001212046069B05F099FE002802D00320C7
:10571000F8BD08E02068C168A06B421CA26301705C
:10572000E08F401EE087A06AA8420FD1002201212D
:105730002046069B05F082FE002802D0606D022103
:105740000EE02068C0686946088008880122802130
:105750002046069B05F072FE002804D0606D2021D3
:1057600008436065D3E701207074A06AA84211D194
:1057700020688168C943C9060CD4616D02221143B7
:1057800061650168A94301602068016829430160DF
:105790003774C4E637740020BAE70220B8E702463F
:1057A0002032137D012B07D001231375006801659A
:1057B00053750020107570470220704770B50400C3
:1057C00005D025462035687D002802D006E001205E
:1057D00070BD00202875204600F00AF80220687588
:1057E000211D206808F046F801206875002070BD72
:1057F0007047000010B500210F4800F0DBF90F4C96
:10580000A268214653005B18521CA2601880A06851
:1058100002280FD34A8808880021C943081A401C6F
:10582000101881B206480068FAF764FC606060688E
:10583000C000606010BD0000CC0200200800002005
:1058400084000020F8B5064604462036307D0D461B
:1058500001283DD00120307502207075002A39D012
:10586000042A46D0082A57D02B68297B20689E46F8
:105870008C466B68016A0122120391430162C1697F
:10588000026A03273F02B9431B020B430F2109039E
:105890008B4361460907090C194305235B039A43AF
:1058A00073460A273B401B031343C1610362206810
:1058B000C169032292029143C1612068C169AA684B
:1058C00012021143C1610120707500203075F8BDCE
:1058D0000220F8BDEB6806CD083D206808F006F808
:1058E000206882690C218A43826120688169AA68E4
:1058F0000FE0EB6806CD083D206808F025F8206829
:105900008269032189028A43826120688169AA68C9
:10591000120211438161D6E788CD28792168844637
:10592000086AFF22013290430862C8690A6A800847
:1059300080003843F027B84367463F073F0E0743D0
:105940000520400282430A20034018021043CF6121
:1059500008622068C1690C229143C1612068C16955
:105960002A68AEE710B5022104462034617501684B
:105970000A6A064B1A4203D10A68520852000A60AA
:1059800000F020F800206075207510BD1111000096
:1059900070B5040005D025462035687D002802D06A
:1059A00006E0012070BD00202875204600F00CF8AC
:1059B00002206875211D206807F05CFF01206875D2
:1059C000002070BD7047000010B50748416B0422ED
:1059D00011434163002204211420FEF7F9FC142036
:1059E000FEF7ECFC10BD00000010024010B502688C
:1059F0000446002906D0042907D0082914D00C2910
:105A000007D114E0D068022301E0D06804231843D2
:105A1000D0600122206807F05DFF20680168012244
:105A200011430160002010BDD0680823EFE7D06863
:105A30001023ECE710B502680446002906D00429BB
:105A400007D0082918D00C2907D118E0D068022304
:105A500001E0D06804239843D0600022206807F05A
:105A600039FF2068016A074A114203D101684908D9
:105A700049000160002010BDD0680823EBE7D06822
:105A80001023E8E71111000070B5044600680169B1
:105A90000025C9438907002915DBC168C943890767
:105AA00011D4E91E016101202075206880698007FA
:105AB000204602D0FFF79EFE04E000F078F8204672
:105AC00000F076F8257520680169C943490717D4A5
:105AD000C168C943490713D40421C94301610220A5
